:020000040800F2
:1000000020090020CD2400082D0700082F07000834
:1000100033070008370700083B070008000000000E
:100020000000000000000000000000003F07000882
:1000300041070008000000004307000845070008CA
:10004000E7240008E7240008E7240008E724000864
:10005000E7240008E7240008E7240008E724000854
:10006000E7240008E7240008E7240008E724000844
:10007000E7240008E7240008E7240008E724000834
:10008000E7240008E7240008E7240008E724000824
:10009000E7240008E7240008E7240008E724000814
:1000A000E7240008E7240008E7240008E724000804
:1000B000E724000883090008E7240008E724000873
:1000C000E7240008E7240008E7240008E7240008E4
:1000D000E7240008CD0300085D060008E7240008B7
:1000E000E7240008E7240008E7240008E7240008C4
:1000F000E7240008E7240008E7240008E7240008B4
:10010000E7240008E7240008BD050008E7240008EC
:10011000E7240008E72400087B040008E72400081F
:10012000E7240008E7240008E7240008E724000883
:1001300000F002F800F03AF80AA090E8000C8244BF
:100140008344AAF10107DA4501D100F02FF8AFF29C
:10015000090EBAE80F0013F0010F18BFFB1A43F0A5
:10016000010318475444000074440000103A24BFAF
:1001700078C878C1FAD8520724BF30C830C144BF0C
:1001800004680C607047000000230024002500264E
:10019000103A28BF78C1FBD8520728BF30C148BFEA
:1001A0000B6070471FB51FBD10B510BD03F0B1FE49
:1001B0001146FFF7F7FF00F009F803F0CFFE03B494
:1001C000FFF7F2FF03BC03F0D7FE000002F014F9C2
:1001D0004FF4A06002F09AF94FF4E13001F038F8E2
:1001E0004FF4E13001F085F8002141F61F4000F0A6
:1001F00045FC00F0A9FC00F0C9FD00F0E9FD01F0AC
:10020000C4FB00F0D1FB00F000FC01F08FFA0521E7
:10021000FA4801F09CF9C82002F02BF90521F848B2
:1002200001F095F940F6B83002F023F90521F548C0
:1002300001F08DF9642002F01CF9012001F053F95E
:10024000C3E001F079FAF048407F012809D1EE4877
:1002500090F82000012804D101F0A7FB0020EA4912
:100260004877E948007F012809D1E74890F8200045
:10027000012804D101F0C2FB0020E3490877E248DD
:10028000807F01287ED1E14800F0D9FEDF483C3074
:1002900000F0D5FEDD48783000F0D1FEDB48B43008
:1002A00000F0CDFED948B0F92C0000280DDB01206C
:1002B000D74908600020D749C1F89001D348808D04
:1002C00081B2D54803F0D8FB0DE00020D04908608A
:1002D0000120D049C1F89001CC48808D404281B2C4
:1002E000CD4803F0C9FBC948B0F9680000280EDB0F
:1002F0000020CA4908600120C949C1F89401C348D7
:10030000B0F8680081B2C44803F0B8FB0EE00120E9
:10031000C24908600020C249C1F89401BB48B0F846
:100320006800404281B2BC4803F0A8FBB748B0F96E
:10033000A40000280EDB0120BA4908600020BA4959
:10034000C1F8B401B148B0F8A40081B2B24803F0DA
:1003500097FB0EE00020B34908600120B249C1F8C4
:10036000B401AA48B0F8A400404281B2AA4803F000
:1003700087FBA648B0F9E000002811DB0020A9495E
:10038000183900E01FE008600120A749C1F8AC015E
:100390009E48B0F8E00081B29F4803F073FB0FE085
:1003A0000120A0491839086000209F49C1F8AC011C
:1003B0009648B0F8E000404281B2974803F062FBF3
:1003C00000209149887701F033FB3AE710B540F2FD
:1003D0002551964803F056FD01284DD1934803F06E
:1003E000D1FCC4B29248007848B9FF2C03D1012057
:1003F0008F4908703AE000208D49087036E08C483B
:10040000007801280CD1022C06D1022088490870FE
:1004100000208849087029E000208549087025E0FF
:1004200083480078022810D18348824909784454CF
:1004300080480078401C7F490870084600780828EA
:1004400014DB03207A49087010E07948007803280B
:100450000CD1FE2C07D10020754908700120764987
:1004600081F83C0002E000207149087040F22551FB
:100470006E4803F031FD00BF10BD70B501216F481B
:1004800003F02BFB00287DD06D4840686C498860E4
:100490000846406988610846406A88620846406BA1
:1004A00088634FF0804003F006FB6549486065486B
:1004B00003F001FB62494861634803F0FCFA6049BC
:1004C0004862624803F0F7FA5D494863084680884D
:1004D0000989401A00B25A4988810846808A098BE6
:1004E000401A00B2564988830846808C098D401A0C
:1004F00000B2534988850846808E098F401A00B2A1
:100500004F498887B1F90C10484203F089FE05462F
:100510004F4903F0D1FE04464E4903F0A3FD3B4989
:1005200048604749B1F91C0003F07AFE0546484986
:1005300003F0C2FE0446474903F094FD33490864C2
:100540003F49B1F92C10484203F06AFE0546404984
:1005500003F0B2FE04463F4903F084FD2B49C8670F
:100560003749B1F93C0003F05BFE0546384903F01A
:10057000A3FE0446374903F075FD2449C1F8B800CD
:10058000084600E015E0416800F00BFD1F48016CD3
:100590003C3000F006FD1D48C16F783000F001FDD1
:1005A0001A48D0F8B810B43000F0FBFC012016490E
:1005B00088770121214803F0A1FA70BD10B501210F
:1005C000254803F08AFAB8B10F48C07F401C0E4995
:1005D000C8770846C07F012801D1487708E00A485B
:1005E000C07F022804D10120074908770020C8777E
:1005F0000121194803F082FA10BD0000000000201C
:10060000050000200A000020700200206800002081
:10061000900121420000224200080040880122424D
:1006200000002142BC812342008023420038014067
:100630000F00002010000020580100200010004092
:1006400030020020002C0140000400400034014032
:100650000000704267662640000C004010B540F272
:100660002551304803F00EFC002859D02D4803F0E6
:1006700089FBC4B22C4890F87D0058B9552C04D1A0
:100680000120294981F87D0044E00020264981F8B5
:100690007D003FE0244890F87D0001281CD1532CB8
:1006A00001D0522C13D102201F4981F87D00002077
:1006B00081F87E00084690F87E104030445440385F
:1006C00090F87E00401C184981F87E0022E000204E
:1006D000154981F87D001DE0134890F87D0002283F
:1006E00018D1114890F87E1040304454403890F8AA
:1006F0007E00401C0C4981F87E00084690F87E0080
:100700000A2807DB002081F87D0081F87E000120A7
:1007100081F87C0040F22551024803F0DDFB00BF68
:1007200010BD00000044004058010020704700BF89
:10073000FEE700BFFEE700BFFEE700BFFEE7704731
:1007400070477047704700000CB500200190009082
:100750006C48006840F480306A49086000BF69480E
:10076000006800F4003000900198401C019000984F
:1007700018B90198B0F5A06FF1D16248006800F493
:10078000003010B10120009001E00020009000989E
:10079000012843D15C48006840F010005A490860C5
:1007A0000846006820F0030008600846006840F032
:1007B0000200086053484068524948600846406853
:1007C00048600846406840F48060486008464068D9
:1007D00020F47C1048600846406840F4E810486007
:1007E0000846006840F08070086000BF4548006817
:1007F00000F000700028F9D04248406820F0030063
:10080000404948600846406840F00200486000BF28
:100810003C48406800F00C000828F9D10CBD10B528
:10082000FFF792FF10BD10B53648006840F0010098
:1008300034490860084640683449084031494860F6
:1008400008460068324908402E490860084600689A
:1008500020F4802008600846406820F4FE004860CC
:100860004FF41F008860FFF7DAFF4FF0006029495E
:10087000086010BD10B5002100200022214B5B68EC
:1008800003F00C0121B1042906D0082928D107E082
:10089000214B224C236027E01F4B204C236023E098
:1008A000184B5B6803F47010164B5B6803F48032DE
:1008B000022303EB904022B9194B4343174C2360AA
:1008C0000DE0104B5B6803F4003323B1144B43433A
:1008D000124C236003E0104B4343104C236003E0B1
:1008E0000D4B0E4C236000BF00BF064B5B68C3F38B
:1008F00003130C4CE15C094B1B68CB40074C236095
:1009000010BD000000100240002002400000FFF86F
:10091000FFFFF6FE08ED00E000127A001400002050
:1009200000093D00180000207FB505460C46012156
:10093000022002F082F9ADF80850ADF80440002022
:10094000ADF80A00ADF8060001A9484802F0A0FA87
:1009500001221146454802F012FE1D208DF80000CC
:1009600000208DF8010003208DF8020001208DF891
:100970000300684601F0CFFD01213C4802F0E4FD90
:100980007FBD10B50121394803F0A7F858B1012106
:10099000364803F0B3F83648006808B9012000E093
:1009A00000203349086010BD1FB50121102002F05E
:1009B00044F941F61F40ADF8040040F2F310ADF8E1
:1009C00008000020ADF80600ADF80A008DF80C0014
:1009D00001A9284802F05CFA01221146254802F0DC
:1009E000CEFD36208DF8000001208DF80100022098
:1009F0008DF8020001208DF80300684601F08BFDA0
:100A000001211C4802F0A0FD1FBD1FB501210820D7
:100A100002F013F941F61F40ADF8040040F2F31064
:100A2000ADF808000020ADF80600ADF80A008DF81A
:100A30000C0001A9104802F02BFA012211460E48C1
:100A400002F09DFD32208DF8000000208DF801009D
:100A500002208DF8020001208DF80300684601F0A5
:100A60005AFD0121044802F06FFD1FBD0004004043
:100A70009401234200100040000C004030B589B0C2
:100A800004460D460121212002F0CAF8012104206C
:100A900002F0D3F80121080301F0D7FE4FF47040B3
:100AA000ADF8200003208DF8220018208DF82300D7
:100AB00008A9FD4801F0F8FD05A802F015FDADF804
:100AC0001450ADF818400020ADF81600ADF81A002B
:100AD00005A9F64802F0DCF901A802F00EFD60203D
:100AE000ADF804000120ADF806000020ADF80A00C2
:100AF000ADF80C0001A9ED4802F007FA0821EB4817
:100B000002F052FE01A9E94802F041FA0821E74843
:100B100002F053FE01A9E54802F086FA0821E348F5
:100B200002F058FE01A9E14802F0C9FA0821DF48A5
:100B300002F059FE0121DD4802F006FE0121DB48EA
:100B400002F002FD09B030BD08B50121942002F089
:100B500067F83020ADF8000010208DF80300032066
:100B60008DF802006946D24801F09EFD3021D04840
:100B700001F047FE1420ADF8000010208DF80300AE
:100B800003208DF802006946CA4801F08DFD14214A
:100B9000C84801F036FE4FF42A40ADF8000010209E
:100BA0008DF8030003208DF802006946C24801F069
:100BB0007BFD4FF42A41C04801F023FE08BD01200F
:100BC000BE4908600020BE49C1F89001BD490860D7
:100BD0000120BA49091D0860BB4908600020BA49D4
:100BE00008390860B849183908600120B749C1F8C8
:100BF000AC0170470020B14908600120B049C1F83C
:100C00009001B04908600020AC49091D0860AE4958
:100C100008600120AC4908390860AB491839086000
:100C20000020AA49C1F8AC0170470120A34908601F
:100C30000020A349C1F890010120A24908600020CA
:100C40009E49091D086001209F49086000209E49B7
:100C50000839086001209C491839086000209B4928
:100C6000C1F8AC0170470020944908600120944904
:100C7000C1F8900100209349086001208F49091DA7
:100C8000086000209049086001208F4908390860F9
:100C900000208D491839086001208C49C1F8AC0149
:100CA000704730B587B005460C4604A802F01CFC1E
:100CB0000020ADF81000ADF81200ADF81440ADF80A
:100CC000160004A9284602F0E3F800231A4603217F
:100CD000284602F0ECFC01A802F019FC0620ADF851
:100CE0000C000020ADF80A00ADF804000120ADF8BA
:100CF000080001A9284602F05EFB0420ADF80400BC
:100D000001A9284602F057FB0021284602F0B0FE58
:100D10000121284602F018FC07B030BD38B5054661
:100D20000C46ADF8004003208DF8020048208DF8F5
:100D300003006946284601F0B7FC38BD10B5012113
:100D40005D2001F06DFF0121614801F07EFD012170
:100D5000604801F07AFD01215F4801F076FD4FF413
:100D600020615E48FFF7DAFF4FF400415048FFF77B
:100D7000D5FF08215A48FFF7D1FFC0214C48FFF7A3
:100D8000CDFFC0214B48FFF7C9FF10BD10B50121B1
:100D9000032001F052FF01214FF4205001F040FFE9
:100DA000FFF7CCFF4FF6FF714FF08040FFF779FF60
:100DB0004FF6FF714B48FFF774FF4FF6FF714A483B
:100DC000FFF76FFF4FF6FF714848FFF76AFF10BD4E
:100DD00010B5002046490860486088608881086135
:100DE00048618861888308624862886288850863F0
:100DF0004863886388873F4B3F4A4049404800F03A
:100E000087F83C4B3C4A3D493D483C3000F080F877
:100E1000384B394A39493A48783000F079F8354B3F
:100E2000354A36493648B43000F072F8002134486B
:100E300000F072F8002132483C3000F06DF80021DB
:100E40002F48783000F068F800212D48B43000F0C9
:100E500063F82C492A4800F06CF82A4928483C30AD
:100E600000F067F827492648783000F062F82549F5
:100E70002348B43000F05DF8234A2449204800F0AC
:100E80005AF8214A21491E483C3000F054F81E4AC5
:100E90001E491B48783000F04EF81B4A1B49184881
:100EA000B43000F048F810BD0014014000080040C4
:100EB0000008014000100140001C01409001214247
:100EC0000000224288012242BC812342008023424A
:100ED00000023000C0001600000318000018014096
:100EE000000C0140002C014000040040003401408F
:100EF000300200200AD7233D0AD7A33C000020403F
:100F0000680000200000484400C0DA450000FA44B0
:100F10008160C260036170470160002242604261EB
:100F20008261C261026242628262828570470160B0
:100F3000704741637047016382637047B0F90020D6
:100F4000002A02DDB0F9002002E0B0F90020524290
:100F50008A4208DDB0F90020002A01DB018002E0AE
:100F60004A4212B20280704770B504460D46002115
:100F7000206803F06DFA01D2206802E0206880F05A
:100F800000400646294603F063FA09D20021206892
:100F900003F05EFA01D8256002E085F00040206091
:100FA00070BD70B504460D46A069E0616069A0613E
:100FB0006560D4E9000103F087FA6061002160698F
:100FC00003F046FA09D20021A06903F041FA04D2E5
:100FD0000021E06903F03CFA0ED30021606903F0C0
:100FE00037F925D20021A06903F032F920D200217F
:100FF000E06903F02DF91BD20021606903F028FAA3
:1010000001D2606902E0606980F000400646616BD1
:1010100003F01EF909D26169E06803F04DF9064654
:10102000616A02F0B1FF606208E00020606205E0E2
:101030004FF07C51606A03F03FF9606270BD38B5D3
:101040000446002000906169A06803F035F9206231
:10105000D4E9050103F038FA0546216903F02CF9BB
:10106000A06204F12400216BFFF77EFFD4E90801A0
:1010700002F08AFF0546A16A02F086FF00906846EA
:10108000A16BFFF771FF009803F0AEF800B2A085E6
:10109000B4F92C00002805DDB4F92C00002801DA91
:1010A0000020A08538BD8160C26003617047016087
:1010B0000022426042618261C261026242628262D7
:1010C0008285704741637047016382637047B0F95E
:1010D0000020002A02DDB0F9002002E0B0F9002073
:1010E00052428A4208DDB0F90020002A01DB01806B
:1010F00002E04A4212B20280704770B504460D46C3
:101100000021206803F0A4F901D2206802E02068E1
:1011100080F000400646294603F09AF909D20021E2
:10112000206803F095F901D8256002E085F00040C1
:10113000206070BD70B504460D46A069E06160692D
:10114000A0616560D4E9000103F0BEF9606100218F
:10115000606903F07DF909D20021A06903F078F9F4
:1011600004D20021E06903F073F90ED30021606915
:1011700003F06EF825D20021A06903F069F820D2AF
:101180000021E06903F064F81BD20021606903F0DC
:101190005FF901D2606902E0606980F000400646B4
:1011A000616B03F055F809D26169E06803F084F8D7
:1011B0000646616A02F0E8FE606208E000206062B4
:1011C00005E04FF07C51606A03F076F8606270BD14
:1011D00038B50446002000906169A06803F06CF8FF
:1011E0002062D4E9050103F06FF90546216903F097
:1011F00063F8A06204F12400216BFFF77EFFD4E9BD
:10120000080102F0C1FE0546A16A02F0BDFE009091
:101210006846A16BFFF771FF009802F0E5FF00B28E
:10122000A085B4F92C0010F1120F05DDB4F92C00E3
:10123000122801DA0020A08538BD000010B5024652
:10124000012000E050430B1EA1F10101FAD110BDB5
:1012500010B586B004460121042001F0E1FC012113
:10126000880301F0DDFC18208DF817004FF40070A2
:10127000ADF8140003208DF8160005A9FE4801F012
:1012800013FA04208DF817000002ADF814000320B3
:101290008DF8160005A9F84801F006FA019400201F
:1012A000ADF810000C20ADF80E000020ADF80C00D9
:1012B000ADF80A00ADF8080001A9F04802F065FC9D
:1012C0000121EE4802F0EDFC012240F22551EB48ED
:1012D00002F0F3FC25208DF8000001208DF80300BA
:1012E0008DF801008DF80200684601F014F906B08F
:1012F00010BD10B586B004460121212001F090FCFC
:101300000121480401F099FC0121082001F09DFA17
:101310002020ADF8140018208DF8170003208DF858
:10132000160005A9D64801F0BFF94020ADF8140019
:1013300004208DF8170003208DF8160005A9D04869
:1013400001F0B2F901940020ADF80800ADF80A00F0
:10135000ADF80C00ADF810000C20ADF80E0001A99E
:10136000C84802F012FC012240F22551C54802F0A3
:10137000A4FC26208DF8000001208DF80300022037
:101380008DF8010001208DF80200684601F0C3F8D5
:101390000121BC4802F085FC06B010BD10B586B036
:1013A00004460121082001F03BFC0121880401F0E2
:1013B00044FC18208DF817004FF48060ADF814003D
:1013C00003208DF8160005A9AF4801F06DF904203F
:1013D0008DF817004002ADF8140003208DF81600B8
:1013E00005A9A94801F060F901940020ADF81000AA
:1013F0000C20ADF80E000020ADF80C00ADF80A008E
:10140000ADF8080001A9A14802F0BFFB01219F48E7
:1014100002F047FC012240F225519C4802F04DFCAD
:1014200027208DF8000001208DF8030002208DF8A0
:1014300001008DF80200684601F06DF806B010BD9D
:1014400010B586B004460121112001F0E9FB01210D
:10145000C80401F0F2FB4FF48060ADF814000320E3
:101460008DF8160018208DF8170005A9884801F09E
:101470001BF94FF40060ADF8140004208DF817003C
:1014800005A9834801F010F901A802F0E7FB0194D7
:101490000020ADF80800ADF80A00ADF80C00ADF87A
:1014A00010000C20ADF80E0001A97A4802F06DFB87
:1014B00034208DF8000002208DF8010003208DF803
:1014C000020001208DF80300684601F024F8012293
:1014D00040F225516F4802F0F0FB01216D4802F007
:1014E000E0FB06B010BD10B504466448001D048042
:1014F00000BF8021614802F0AFFC0028F9D010BD88
:1015000010B504465F48001D048000BF80215D487F
:1015100002F0A2FC0028F9D010BD10B504465B48CB
:10152000001D048000BF8021584802F095FC00286F
:10153000F9D010BD70B505460E46002404E0285DC4
:10154000FFF7D1FF601CC4B2B442F8DB70BD70B5C8
:1015500005460E46002404E0285DFFF7D1FF601C1D
:10156000C4B2B442F8DB70BD70B505460E46002427
:1015700004E0285DFFF7D1FF601CC4B2B442F8DB81
:1015800070BD70B50446002504E0605DFFF7ABFF59
:10159000681CC5B2605D0028F7D170BD70B5044607
:1015A000002504E0605DFFF7ABFF681CC5B2605D1D
:1015B0000028F7D170BD70B50446002504E0605DD9
:1015C000FFF7ABFF681CC5B2605D0028F7D170BDA6
:1015D0002DE9F04106460C46002512E0601B411E35
:1015E0000A20FFF72BFEB6FBF0F00A21B0FBF1F268
:1015F00001FB120000F130073846FFF774FF681C4A
:10160000C5B2A542EADBBDE8F0812DE9F04106460E
:101610000C46002512E0601B411E0A20FFF70EFE5B
:10162000B6FBF0F00A21B0FBF1F201FB120000F171
:1016300030073846FFF764FF681CC5B2A542EADBF5
:10164000BDE8F0812DE9F04106460C46002512E088
:10165000601B411E0A20FFF7F1FDB6FBF0F00A21E6
:10166000B0FBF1F201FB120000F130073846FFF742
:1016700054FF681CC5B20FE000080140003801406B
:101680000014014000440040000C014000480040AC
:1016900000100140004C0040A542D9DBBDE8F081BC
:1016A00010B504462048048000BF80211E48001F5A
:1016B00002F0D2FB0028F8D010BD70B505460E46EA
:1016C000002404E0285DFFF7EBFF601CC4B2B442C5
:1016D000F8DB70BD70B50446002504E0605DFFF7DF
:1016E000DFFF681CC5B2605D0028F7D170BD2DE931
:1016F000F04106460C46002512E0601B411E0A2000
:10170000FFF79CFDB6FBF0F00A21B0FBF1F201FB04
:10171000120000F130073846FFF7C2FF681CC5B25F
:10172000A542EADBBDE8F081044C004000203A49C4
:1017300008604860886070472DE9F041374890F8AC
:101740007C00012866D10024344890F8451090F8B8
:10175000460041EA002004B2304890F84000522888
:1017600014D1204602F05CFD07464FF08E4102F096
:1017700079FC80F000462A49304602F09DFD05467E
:10178000284902F099FD284988603EE0234890F8F6
:101790004000532839D1204602F042FD06464FF062
:1017A0008E4102F05FFC0546204902F085FD1A4992
:1017B00008600A465168106802F086FE1649086003
:1017C00008681A4902F044FE07D21349086818490C
:1017D00002F07AFE104908600CE00F4908681549CC
:1017E00002F036FD06D20C490868114902F0CCFB24
:1017F00009490860084908680C4902F033FC0546AD
:101800000D4902F059FD084948610020034981F85B
:101810007C0000BFBDE8F081A40200205801002038
:1018200000007A454BFA8E3C7002002000003443E1
:101830000000B443000034C3F90F49402DE9F041E2
:101840000446FE4EFE49204602F036FD0746FD499D
:1018500002F032FD0546314602F004FCBDE8F0819D
:1018600070B50446F54D2946204602F025FD064692
:10187000F54902F0F7FB70BD70B5044684F00045F1
:101880000021284602F0E4FD01D8284601E085F059
:1018900000400646ED49304602F0DAFD09D2EC4937
:1018A000304602F0D5FC04D2EA49284602F004FD95
:1018B0000546284670BD2DE9FF4F85B08846914604
:1018C0009A46DDE9124504B115B909B0BDE8F08FBB
:1018D0000598FFF7C5FF06464046FFF7C1FF049095
:1018E0004846FFF7BDFF03905046FFF7B9FF074694
:1018F0001498012826D13046049902F045FB019046
:10190000039902F041FB3946029002F03DFB834609
:101910004FF07A5102F0D0FC206086F00040009039
:10192000049902F031FB0190039902F0CDFD394694
:10193000029002F029FB83464FF07A5102F0BCFC82
:10194000286013E03046049902F01EFB01900399D1
:1019500002F01AFB3946029002F016FB83464FF064
:101960007A5102F0A9FC20600020286000BFACE79B
:101970000860704702460AB1042901D2002070476E
:10198000081F104403681846F9E70020B24988612F
:101990004861086048608860487708770861C860D7
:1019A0008877C87781F8200070473EB50021AA48A3
:1019B000001D021FA94CCDE900200291D4F8B830D7
:1019C000E26F216C6068FFF776FFFF20FFF78BFD69
:1019D0000320FFF788FDA0490868A149FFF7C8FF69
:1019E0009D4948689E49091DFFF7C2FF08219C4890
:1019F000FFF7A0FDFE20FFF776FD3EBD10B5FF20EE
:101A0000FFF771FD0420FFF76EFD93494869944983
:101A1000FFF7AEFF904988689149091DFFF7A8FFBD
:101A200008218F48FFF786FDFE20FFF75CFD10BD03
:101A30002DE9F0478A481E3890F83C00012869D10A
:101A4000854981F82000042185481E38FFF792FF60
:101A500081490861042182481A38FFF78BFF7E49CB
:101A6000C860804CC868FFF707FF8146214648469A
:101A700002F022FC824678480169504602F084FA5E
:101A800005462146484602F017FC82467248016925
:101A9000504602F00EFD06462146484602F00CFC78
:101AA00082466D480169504602F06EFA07462146AB
:101AB000484602F001FC824667480169504602F040
:101AC000F8FC80462846FFF7B9FE82465146634837
:101AD000FFF72DFA3046FFF7B1FE824651465F48C8
:101AE0003C30FFF724FA3846FFF7A8FE82465146FD
:101AF0005A487830FFF71BFA4046FFF79FFE8246B0
:101B000051465648B430FFF712FA002054491E39A6
:101B100081F83C00BDE8F0872DE9F84F00F0D8FBD4
:101B2000012872D1072000F0A3FB0546062000F033
:101B30009FFB0646052000F09BFB0746042000F0B3
:101B400097FB80460024802D10DDA6F18000002840
:101B500001DB014600E04142322907DA4FF0FF3055
:101B60003D4948628862C862086360E0802D0FDAF0
:101B7000A6F18000002801DB014600E04142322945
:101B800006DA0120344948628862C86208634EE080
:101B9000802D0FD1A6F18000002801DB014600E076
:101BA0004142322906DA00202B4948628862C86225
:101BB00008633CE0802E13DAA5F18000002801DBE9
:101BC000014600E0414232290ADA4FF0FF30224953
:101BD000486201208862801EC8620120086326E0F6
:101BE000802E13DDA5F18000002801DB014600E016
:101BF000414232290ADA012017494862801E886270
:101C00000120C862801E086311E0D8E0802E0ED14A
:101C1000A5F18000002801DB014600E041423229A5
:101C200005DA00200C4948628862C8620863802F88
:101C300077DCC7F1800002F0F3FA15E0BA1A513EE2
:101C4000000070420000F0410000E1440AD7A33CCC
:101C50006666E63E0AD7A33F7002002068000020B7
:101C6000760100200C1F093E83465649486A02F05F
:101C7000D7FA5549009002F01FFB8246594602F000
:101C80001BFB81464FF0864102F0ECF94F4908609A
:101C9000C7F1800002F0C4FA4A490090886A02F055
:101CA000BFFA8346484902F007FB8246009902F0DA
:101CB00003FB81464FF0864102F0D4F94349C863E3
:101CC000C7F1800002F0ACFA3E490090C86A02F009
:101CD000A7FA83463C4902F0EFFA8246009902F0E7
:101CE000EBFA81464FF0864102F0BCF9374988672C
:101CF000C7F1800002F094FA32490090086B02F0BC
:101D00008FFA8346304902F0D7FA8246009902F0F2
:101D1000D3FA81464FF0864102F0A4F92B49C1F86D
:101D2000B400012000F09BFA08B144F00104022045
:101D300000F095FA08B144F00204042000F08FFA94
:101D400008B144F00404082000F089FA08B144F016
:101D50000804102000F083FA08B144F01004202099
:101D600000F07DFA08B144F020041948006884426C
:101D700009D11848007803280ADA16480078401C70
:101D80001449087004E000201249087010480460EB
:101D900010480078022811DB20460F4A126820EA1A
:101DA00002010D4A106001F0010232B10022074B1E
:101DB0001A60DA639A67C3F8B42000BF00BFBDE8B9
:101DC000F88F00007002002000007A4568000020B3
:101DD0002C000020300000202800002008B5012140
:101DE0004FF4847000F01CFF4FF44040ADF8000049
:101DF00003208DF8020010208DF803006946EB489F
:101E000000F052FC4FF42040ADF8000003208DF8A4
:101E1000020010208DF803006946E54800F044FCFC
:101E20004FF48040ADF8000048208DF8030069466B
:101E3000DF4800F039FC4FF48041DC4800F0E1FC61
:101E40004FF40041D94800F0DEFC4FF40051D8486F
:101E500000F0D9FC4FF40041D54800F0D4FC08BD97
:101E600070B504460025002625E06806050E04F03E
:101E7000800028B14FF40041CD4800F0C2FC04E0DE
:101E80004FF40041CA4800F0BEFC4FF40051C8486E
:101E900000F0B7FC4FF48041C54800F098FC08B151
:101EA00045F001054FF40051C14800F0ACFC60065C
:101EB000040E701CC6B2082ED7DB284670BD2DE973
:101EC000F04106460C4615464FF48041B74800F0F5
:101ED0009AFC3046FFF7C4FF074604E0FF20FFF7F7
:101EE000BFFF04F8010B281EA5F10101CDB2F5D109
:101EF0004FF48041AD4800F084FC3846BDE8F081E5
:101F00002DE9F04106460C4615464FF48041A7489E
:101F100000F079FC3046FFF7A3FF074603E014F812
:101F2000010BFFF79DFF281EA5F10101CDB2F6D1EF
:101F30004FF480419D4800F064FC3846BDE8F081D4
:101F40007CB59CA5052229463020FFF7D9FF052244
:101F500069461020FFF7B3FF002409E015F8011BC4
:101F60001DF80400814201D001207CBD601CC4B278
:101F7000052CF3DB0020F8E710B5FFF72FFFFFF784
:101F8000DFFF10BD70B504464FF48041874800F074
:101F90003AFC2046FFF764FFFF20FFF761FF05468C
:101FA0004FF48041814800F02CFC284670BD70B58C
:101FB00004460D464FF480417C4800F024FC202C60
:101FC0000ADA04F01F0141F02000FFF749FF06463E
:101FD0002846FFF745FF0EE02046FFF741FF064683
:101FE000E12C08D0E22C06D0E32C04D0FF2C02D048
:101FF0002846FFF735FF4FF480416C4800F001FCA4
:10200000304670BD10B5FF21E220FFF7D0FF10BDB4
:1020100010B5FF21E120FFF7CAFF10BD10B504463F
:1020200021462720FFF7C3FF10BD10B50720FFF79B
:10203000A9FF044644F0700421460720FFF7B7FFCC
:1020400010BD10B50446052221463020FFF758FF89
:1020500010213120FFF7ABFF01212120FFF7A7FF5F
:1020600001212220FFF7A3FF19212520FFF79FFF61
:1020700025212620FFF79BFF88212420FFF797FFCB
:1020800010BD70B504460D464FF40041474800F0BE
:10209000BAFB2846FFF7D5FF052221462A20FFF785
:1020A0002FFF0F212020FFF782FF4FF400413F4810
:1020B00000F0A7FB70BD70B505460C464FF400411B
:1020C0003A4800F0A0FB2046FFF7BBFF052221465F
:1020D0002A20FFF715FF0E212020FFF768FF4FF49D
:1020E0000041324800F08DFB70BD70B504460026FB
:1020F0004FF400412D4800F086FB0720FFF742FF18
:10210000054605F0400040B1102221466120FFF74E
:10211000D6FE01264020FFF781FF4FF400412348FF
:1021200000F06FFB304670BD2DE9F04107460C46CC
:1021300000254FF400411D4800F065FB102C01DD27
:10214000102000E02046044622463946A020FFF732
:10215000D7FE4FF40041154800F053FB002600E085
:10216000761C42F210708642FAD34FF400410F48B9
:1021700000F049FB0720FFF705FF054605F02000AA
:1021800018B12020FFF74AFF07E005F0100020B14A
:10219000FFF73EFF1020FFF741FF4FF400410348D7
:1021A00000F02FFB2846BDE8F08100000020014030
:1021B000000C01406E5246323400000010B5FFF7AB
:1021C000DBFE10BD70B504460D4629462046FFF7DC
:1021D00072FF70BD70B504460D4629462046FFF7D4
:1021E00050FF70BD70B505460C460026102C01DD71
:1021F000102000E02046044622462946A020FFF792
:102200007FFE13E00720FFF7BDFE064606F0200024
:1022100018B12020FFF702FF09E006F0100028B1F6
:10222000FFF7F6FE1020FFF7F9FE00E0EAE700BF37
:1022300070BD70B504460D460720FFF7A3FE0646A5
:1022400006F0400048B12A4621466120FFF737FEDC
:102250004020FFF7E3FE012070BD0020FCE70146AF
:102260005E480068084008B1012070470020FCE784
:1022700001465B48405C704710B5FFF79FFF594926
:102280000846FFF7A7FF574857490860002404E0B5
:10229000002053490855601CC4B2102CF8DB802084
:1022A0004F49087148718871C87100204B49086016
:1022B000284610BD10B502460B460020002104E060
:1022C000545C0444E0B24C1CE1B29942F8DB10BD0E
:1022D0007FB54FF4FA7500200090019002900390B2
:1022E00042480068401C414908600846006844F6BE
:1022F0001F61884207D900203C490860FFF7BCFFF6
:1023000000203B49087000BF281EA5F101018DB2D5
:10231000FAD110216846FFF78CFF002859D09DF8AC
:102320000000012855D19DF80100032851D10F214B
:102330006846FFF7BFFF9DF80F10884249D1002083
:102340002A490860002405E01DF8040024490855C6
:10235000601CC4B2102CF7DB2148007A1F490860CA
:102360000120234908708DF8000083208DF80100BA
:102370009DF802008DF802000B208DF803001D4827
:1023800000788DF804001B4840788DF80500194846
:1023900080788DF806001748C0788DF8070015483A
:1023A00000798DF808000F216846FFF783FF8DF84C
:1023B0000F000D4801680068FFF704FF1021684610
:1023C000FFF710FF0B490846FFF704FF09480649CD
:1023D00008600748007804B070BD00003800002095
:1023E000B0020020B2450008440000204800002050
:1023F0004C0000203C00002010B56FF0040000F0FD
:10240000D4F82E4800682E49B0FBF1F02D49087031
:102410000846007800EB4001C1EBC0104FF6FF7199
:1024200001EAC0002849088010BD0146254A1278FB
:102430004A434FF0E0235A6100229A611A4612691A
:1024400042F001021A6100BF4FF0E022106900F073
:1024500001021AB100F48032002AF5D04FF0E022D8
:10246000126922F001024FF0E0231A6100229A6102
:1024700070470146144A12884A434FF0E0235A61DC
:1024800000229A611A46126942F001021A6100BFE5
:102490004FF0E022106900F001021AB100F480321E
:1024A000002AF5D04FF0E022126922F001024FF02D
:1024B000E0231A6100229A61704700001400002096
:1024C00000127A004E00002050000020094880478A
:1024D00009480047FEE7FEE7FEE7FEE7FEE7FEE706
:1024E000FEE7FEE7FEE7FEE704480549054A064B1E
:1024F0007047000027080008310100082003002071
:10250000200900202005002020050020314901433A
:10251000314A1160704770B5002100230F22C47842
:1025200004B32D4C246804F4E064C4F5E064210A8B
:10253000C1F10403CA40447804FA03F184781440DA
:1025400021430901254C0678A155047804F01F05A4
:102550000124AC4005786D11AD0005F1E025C5F80A
:10256000004109E0047804F01F050124AC401C4D33
:102570000678761145F8264070BD1A4A0A40024393
:10258000154B1B1F1A60704739B1134A121D126890
:102590000243114B1B1D1A6006E00F4A121D126800
:1025A00082430D4B1B1D1A607047042808D14FF061
:1025B000E021096941F004014FF0E022116107E0D8
:1025C0004FF0E021096921F004014FF0E022116190
:1025D000704700000000FA050CED00E000E400E0A8
:1025E00080E100E080FFFF1F10B50446CC48844224
:1025F00008D10121042000F02DFB0021042000F06F
:1026000029FB46E0C748844208D10121082000F098
:1026100021FB0021082000F01DFB3AE0C248844263
:1026200008D10121102000F015FB0021102000F03E
:1026300011FB2EE0BD48844208D10121202000F08A
:1026400009FB0021202000F005FB22E0B84884426D
:1026500008D10121402000F0FDFA0021402000F0C7
:10266000F9FA16E0B348844208D10121802000F035
:10267000F1FA0021802000F0EDFA0AE0AE48844231
:1026800007D10121801500F0E5FA0021A01500F026
:10269000E1FA10BD10B50121084600F0DBFA002177
:1026A000012000F0D7FA10BD2DE9F04102460025C7
:1026B0000026002000230024002791F803C00CF01E
:1026C0000F0591F803C00CF0100CBCF1000F03D003
:1026D00091F802C04CEA050591F800C0BCF1000F6A
:1026E00031D0146800202BE04FF0010C0CFA00F3FD
:1026F000B1F800C00CEA03069E4220D183004FF0DF
:102700000F0C0CFA03F7BC4305FA03FC4CEA040473
:1027100091F803C0BCF1280F06D14FF0010C0CFA60
:1027200000FCC2F814C00AE091F803C0BCF1480FE5
:1027300005D14FF0010C0CFA00FCC2F810C0401C8F
:102740000828D1D31460B1F800C0BCF1FF0F34DD0C
:10275000546800202EE000F1080C4FF0010808FA40
:102760000CF3B1F800C00CEA03069E4221D18300AD
:102770004FF00F0C0CFA03F7BC4305FA03FC4CEACC
:10278000040491F803C0BCF1280F05D100F1080C36
:1027900008FA0CF8C2F8148091F803C0BCF1480F95
:1027A00007D100F1080C4FF0010808FA0CF8C2F844
:1027B0001080401C0828CED35460BDE8F0814FF64D
:1027C000FF710180022181700421C17070470246AF
:1027D000002093680B400BB1012000E000207047FF
:1027E0000146886880B2704702460020D3680B40DB
:1027F0000BB1012000E0002070470146C86880B29C
:10280000704701617047416170470AB1016100E0A2
:1028100041617047C16070474FF480320A43826162
:102820008161826182698269704702460020434B60
:1028300018684FF68073184040EA021008433F4B77
:10284000186070473E49C8617047F0B50A460023DA
:1028500000240021002500F00046B6F1004F02D10F
:10286000364EF16901E0354E7168C0F3034583B21D
:1028700000F44016B6F5401F08D121F070612F4ECC
:10288000766826F070662D4F7E6012E000F48016A8
:10289000B6F5801F06D1032606FA05F4A14341F0E0
:1028A000706106E0460D360103FA06F6B14341F0C9
:1028B000706122B1460D360103FA06F6314300F08D
:1028C0000046B6F1004F02D11C4EF16101E01B4EF3
:1028D0007160F0BD30B500228B071C0F0F2303FA87
:1028E00004F2164B08338C1053F824309343134CE6
:1028F00008348D1044F8253023468C1053F82430CA
:102900008C07240F00FA04F423430C4C08348D1078
:1029100044F8253030BD0A49DC31086070470000BA
:1029200000080140000C014000100140001401406B
:1029300000180140001C014000200140000001403F
:1029400000002042DF48006840F00100DD490860D7
:1029500008464068DC490840DA4948600846006893
:10296000DA490840D74908600846006820F480200A
:1029700008600846406820F4FE0048604FF41F00DD
:1029800088607047CF49096821F48031CD4A1160D1
:102990001146096821F480211160B0F5803F03D011
:1029A000B0F5802F0ED106E0C649096841F48031A8
:1029B000C44A116007E0C349096841F4A021C14A33
:1029C000116000E000BF00BF704710B50146002253
:1029D000002300204A11012A02D1BA4C236806E0E4
:1029E000022A02D1B74C236A01E0B64C636A01F0B7
:1029F0001F02012494401C400CB1012000E0002083
:102A000010BD38B5002000900024002500BF312003
:102A1000FFF7DBFF05460098401C00900098B0F5DA
:102A2000A06F01D0002DF2D03120FFF7CEFF08B10A
:102A3000012400E00024204638BD01460020A14AC0
:102A4000106820F0F80040EAC10010607047A0490B
:102A500008607047024600209A4B586820F47C10AA
:102A600042EA01031843974B58607047984908663B
:102A7000704701460020934A506820F00300084345
:102A8000506070478F48406800F00C007047014666
:102A900000208C4A506820F0F000084350607047D6
:102AA00001460020874A506820F4E06008435060E7
:102AB000704701460020834A506820F4605040EA85
:102AC000C1005060704729B17E4A527A02437D4B63
:102AD0005A7204E07B4A527A82437A4B5A727047A8
:102AE0007B49D8310860704701460020754A50681C
:102AF00020F440400843506070470021714A203262
:102B00001170704A82F82010012802D004280AD1DE
:102B100004E001216B4A2032117005E00521694A69
:102B20002032117000E000BF00BF704769490860A3
:102B300070476449096A0143624A116270476549F6
:102B400044390860704730B500210022002400237A
:102B50005C4D6D6805F00C0121B1042905D00829F0
:102B600023D105E05C4D056022E05B4D05601FE070
:102B7000544D6D6805F47012524D6D6805F4803443
:102B8000022505EB92421CB9544D554305600BE0FC
:102B90004C4D6D6805F400351DB1504D5543056031
:102BA00002E04D4D5543056002E04B4D056000BF0E
:102BB00000BF444D6D6805F0F0010909484D6B5C9C
:102BC0000568DD4045603F4D6D6805F4E061090A28
:102BD000434D6B5C4568DD4085603A4D6D6805F49A
:102BE0006051C90A3E4D6B5C4568DD40C560354D9E
:102BF0006D6805F44041890B3A4D6B5CC568B5FBC7
:102C0000F3F5056130BD29B12E4A526902432D4BBF
:102C10005A6104E02B4A526982432A4B5A61704739
:102C200029B1284A92690243264B9A6104E0254A59
:102C300092698243234B9A61704729B1214AD26934
:102C40000243204BDA6104E01E4AD26982431D4BE5
:102C5000DA61704729B11B4AD2680243194BDA6026
:102C600004E0184AD2688243164BDA60704729B1F3
:102C7000144A12690243134B1A6104E0114A1269A3
:102C80008243104B1A6170471249403908607047FF
:102C90000F49C86470470B49C87170470948406ABA
:102CA00040F0807007494862704701460020054A9D
:102CB00092680A400AB1012000E0002070470149F3
:102CC00088727047001002400000FFF8FFFFF6FE18
:102CD000000042428004424200127A0000093D0096
:102CE000520000206200002010B50446FE488442D5
:102CF00008D10121C014FFF7ADFF0021E014FFF758
:102D0000A9FFC4E0B4F1804F08D101210846FFF7C4
:102D1000AEFF00210120FFF7AAFFB8E0F34884428C
:102D200008D101210220FFF7A2FF00210220FFF7B6
:102D30009EFFACE0EE48844208D101210420FFF759
:102D400096FF00210420FFF792FFA0E0E9488442AB
:102D500008D101210820FFF78AFF00210820FFF792
:102D600086FF94E0E448844208D101211020FFF757
:102D70007EFF00211020FFF77AFF88E0DF488442C1
:102D800008D101212020FFF772FF00212020FFF74A
:102D90006EFF7CE0DA48844208D101214014FFF73D
:102DA00059FF00216014FFF755FF70E0D5488442B9
:102DB00009D10121C804FFF74DFF00214FF4002085
:102DC000FFF748FF63E0D048844209D1012108059C
:102DD000FFF740FF00214FF48010FFF73BFF56E064
:102DE000CA48844209D101214805FFF733FF002179
:102DF0004FF40010FFF72EFF49E0C548844208D188
:102E000001214020FFF733FF00214020FFF72FFF73
:102E10003DE0C048844208D101218020FFF727FF10
:102E200000218020FFF723FF31E0BB48844208D116
:102E300001218015FFF71BFF0021A015FFF717FFE9
:102E400025E0B648844209D101210804FFF702FFBA
:102E500000214FF48030FFF7FDFE18E0B0488442B7
:102E600009D101214804FFF7F5FE00214FF400309D
:102E7000FFF7F0FE0BE0AB48844208D10121880443
:102E8000FFF7E8FE00214FF48020FFF7E3FE10BDBE
:102E900000220288944B98420ED0994B98420BD056
:102EA000B0F1804F08D0914B984205D0904B98429A
:102EB00002D0904B984204D14FF68F731A404B8842
:102EC0001A438D4B984207D08C4B984204D04FF652
:102ED000FF431A40CB881A4302808B8883850B8876
:102EE0000385814B98420BD0854B984208D08B4B81
:102EF000984205D08A4B984202D08A4B984201D121
:102F00000B7A038601238382704770B50024002268
:102F10000023058C4FF6FE7635400584028C8388AD
:102F2000048B4FF68F752C40B51E2C400D882C431A
:102F3000751E2A400D892A434D882A436A4DA842AE
:102F40000BD06F4DA84208D0744DA84205D0744DE7
:102F5000A84202D0734DA84213D14FF6F7752A400C
:102F60004D892A434FF6FB752A408D882A434FF638
:102F7000FF652B404FF6FF552B408D892B43CD89A4
:102F80002B4383800483CD888586028470BD70B511
:102F9000002400220023058C4FF6EF76354005848F
:102FA000028C8388048B48F6FF752C404FF6FF4552
:102FB0002C400D884FF6FF7606EA05252C434FF688
:102FC000DF752A400D8906EA05152A434D8806EA71
:102FD00005152A43444DA84202D0494DA8421DD1AF
:102FE0004FF67F752A404D894FF6FF7606EA0515A4
:102FF0002A434FF6BF752A408D8806EA05152A43F5
:103000004FF6FF352B404FF2FF752B408D8906EAB6
:1030100085052B43CD8906EA85052B4383800483F0
:10302000CD880587028470BD70B50024002200237E
:10303000058C4FF6FF6635400584028C8388848BAF
:103040004FF68F752C404FF6FC752C400D882C43A5
:103050004FF6FF552A400D894FF6FF7606EA052503
:103060002A434D8806EA05252A431F4DA84202D06F
:10307000234DA8421DD14FF2FF752A404D894FF6CE
:10308000FF7606EA05252A434FF6FF352A408D884C
:1030900006EA05252A434EF6FF752B404DF6FF75CF
:1030A0002B408D8906EA05152B43CD8906EA0515C7
:1030B0002B4383808483CD888587028470BD70B55F
:1030C000002200230024058C4EF6FF76354005844F
:1030D000038C8488828B48F6FF752A404FF6FF45A3
:1030E0002A400D8820E00000002C01400004004030
:1030F00000080040000C0040001000400014004098
:1031000000340140004C0140005001400054014097
:1031100000180040001C004000200040004001401A
:1031200000440140004801404FF6FF7606EA0525BD
:103130002A434DF6FF752B400D8906EA05352B43D2
:103140004D8806EA05352B43FA4DA84202D0FA4DC8
:10315000A84208D14BF6FF752C408D894FF6FF76BB
:1031600006EA85152C4384808283CD88A0F84050E0
:10317000038470BD828B4FF2FF331A408283828BAF
:103180004FF6FF7303EA01231A4382837047F0B5B9
:103190000C461546002200210026078C4EF6FF7CC7
:1031A00007EA0C070784828B018C4FF6FF7707EA4A
:1031B000043640F6FF473A404FF6FF7707EA052707
:1031C0003A434FF6FF7707EA03373A43D94FB842FD
:1031D0000ED0D94FB8420BD0B0F1804F08D0D74FA6
:1031E000B84205D0D64FB84202D0D64FB84206D129
:1031F0004DF6FF77394046F48057394305E047F6EE
:10320000FF57394044F48057394382830184F0BD2D
:10321000828B4FF6F3731A408283828B0A43828338
:103220007047F0B50C461546002200210026078C99
:103230004FF6FF6C07EA0C070784828B018C4FF670
:10324000FF7707EA04264FF60C773A404FF6FF77F0
:1032500007EA03172F433A43B64FB8420ED0B64F92
:10326000B8420BD0B0F1804F08D0B44FB84205D06F
:10327000B34FB84202D0B34FB84206D14FF6FF5712
:10328000394046F48077394305E04FF2FF57394023
:1032900044F48077394382830184F0BD028B4FF27E
:1032A000FF331A400283028B4FF6FF7303EA0123B8
:1032B0001A4302837047F0B50C46154600220021E0
:1032C0000026078C4FF6EF7C07EA0C070784028B79
:1032D000018C4FF6FF7707EA041640F6FF473A40A5
:1032E0004FF6FF7707EA03373A434FF6FF7707EACF
:1032F00005273A438F4FB8420ED08F4FB8420BD0BC
:10330000B0F1804F08D08D4FB84205D08C4FB842F5
:1033100002D08C4FB84206D14FF6DF77394046F0E5
:103320001007394305E04FF65F77394044F0100746
:10333000394302830184F0BD028B4FF6F3731A40C8
:103340000283028B0A4302837047F0B50C46154690
:1033500000220021068C4FF6FE773E400684028B49
:10336000018C4FF60C7632407E1C06EA03162E4383
:103370003243704EB0420ED06F4EB0420BD0B0F11F
:10338000804F08D06D4EB04205D06D4EB04202D095
:103390006C4EB04206D14FF6FD76314044F0010646
:1033A000314305E04FF6F576314044F001063143F4
:1033B00002830184F0BD70B505460C465D48854228
:1033C0000ED05D4885420BD0B5F1804F08D05B48E8
:1033D000854205D05A48854202D05A48854200D1DC
:1033E00000E000BF208850B92389A2886188284660
:1033F000FFF7ABFFE1882846FFF79EFF25E0208816
:1034000004280AD12389A28861882846FFF753FF40
:10341000E1882846FFF742FF17E0208808280AD1F4
:103420002389A28861882846FFF7FBFEE1882846A9
:10343000FFF7EEFE09E02389A28861882846FFF79E
:10344000A6FEE1882846FFF795FE70BD2DE9F04104
:1034500005460C4600260127608808B9022600E0D0
:103460000026A088012801D1022700E0012720883A
:10347000A0B92389A28861882846FFF766FFE18802
:103480002846FFF759FF23893A4631462846FFF779
:1034900012FFE1882846FFF701FF13E02389A28885
:1034A00061882846FFF707FFE1882846FFF7F6FE08
:1034B00023893A4631462846FFF747FFE1882846E8
:1034C000FFF73AFFBDE8F0810A884B881A438B88E2
:1034D0001A43CB881A430B891A434B891A438B89A9
:1034E0001A43A0F8442070474FF6FF7181800021F5
:1034F0000180C180418001727047002101804180BC
:103500008180C180018141818181C1817047002119
:1035100001804180012181800021C18001817047AB
:103520000021018041808180C180018141818181B0
:1035300070470000002C01400034014000040040AE
:1035400000080040000C004021B1028842F0010256
:10355000028004E002884FF6FE731A400280704732
:1035600031B1B0F8442042F40042A0F8442005E014
:10357000B0F84420C2F30E02A0F8442070471AB1FC
:1035800083890B43838102E083898B438381704766
:103590008182704741EA0203A0F8483070471AB1AF
:1035A00083890B43838102E083898B438381704746
:1035B00001894FF6F8721140018170470A460021D7
:1035C00001894FF68F73194011430181704730B55F
:1035D00004460D4629462046FFF7F0FF208940F0BB
:1035E0000700208130BD2DE9F04104460D46164606
:1035F0001F46602D06D13B46012231462046FFF78B
:103600005AFE05E03B46012231462046FFF79DFE6B
:1036100029462046FFF7D2FF208940F0070020818D
:10362000BDE8F08130B50C4600210189C9B24FF6E2
:10363000FF7505EA0325154325432943018130BD64
:103640002DE9F04105460E461746984600244346AC
:103650003A4631462846FFF7E5FF2C894FF6F870C9
:10366000044044F007044FF68F70044044F07004A7
:103670002C81BDE8F081F0B504460D4616461F4684
:103680003B46324629462046FFF7CCFF208940F4CE
:1036900080402081F0BD0185828270470A4600216A
:1036A00001884FF68F731940114301807047F0B5C0
:1036B0000C4615461E460021002200230189028B7C
:1036C000038C4FF6F877394021434FF6FC473A40D8
:1036D00040F201173A434FF6DD773B404FF6FF7754
:1036E00007EA06172F433B43018102830384F0BDA1
:1036F0000A460021018B4FF68F7319401143018355
:1037000070470A460021018B48F6FF7319404FF6B7
:10371000FF7303EA02231943018370470A4600211D
:10372000818B4FF68F7319401143818370470A468E
:103730000021818B48F6FF7319404FF6FF7303EAAF
:10374000022319438183704721B1028842F080022D
:10375000028004E002884FF67F731A4002807047AF
:1037600021B1828842F00402828004E082884FF610
:10377000FB731A408280704721B1828842F00802B0
:10378000828004E082884FF6F7731A408280704787
:1037900021B1828842F00102828004E082884FF6E3
:1037A000FE731A40828070470A460021018B4FF653
:1037B000F77319401143018370470A460021018BBA
:1037C0004FF2FF7319404FF6FF7303EA02231943C8
:1037D000018370470A460021818B4FF6F773194029
:1037E0001143818370470A460021818B4FF2FF739A
:1037F00019404FF6FF7303EA022319438183704790
:103800000A460021018B4FF6FB73194011430183D7
:1038100070470A460021018B4FF6FF3319404FF6DF
:10382000FF7303EA02231943018370470A4600210C
:10383000818B4FF6FB7319401143818370470A4611
:103840000021818B4FF6FF3319404FF6FF7303EAD7
:1038500002231943818370470A460021018B4FF6EA
:103860007F7319401143018370470A460021018B81
:10387000C1F30E014FF6FF7303EA022319430183DC
:1038800070470A460021818B4FF67F731940114320
:10389000818370470A460021818BC1F30E014FF6E8
:1038A000FF7303EA02231943818370470A4600210C
:1038B000018C4FF6FD7319401143018470470A468D
:1038C0000021018C4FF6F7731940114301847047B2
:1038D0000A460021018C4FF6DF7319404FF6FF7343
:1038E00003EA02131943018470470A460021018C40
:1038F0004FF67F7319404FF6FF7303EA0213194323
:10390000018470470A460021018C4FF6FF5319408D
:103910004FF6FF7303EA02231943018470470A46F6
:103920000021018C4FF2FF7319404FF6FF7303EA39
:1039300002231943018470470A460021018C4DF689
:10394000FF7319404FF6FF7303EA023319430184F2
:10395000704730B5002301248C40A3B2048C9C43F3
:103960000484048C02FA01F5ADB22C43048430BD0A
:1039700030B5002304248C40A3B2048C9C430484FF
:10398000048C02FA01F5ADB22C43048430BD70B54D
:103990000346002000241846183001258D40ACB2A3
:1039A0001D8CA5431D8409B1082909D100EB6100D4
:1039B000056825F0700505600568154305600EE093
:1039C0000D1FC5F34E052844056825F4E045056044
:1039D00005684FF6FF7606EA02263543056070BD9E
:1039E00021B1028842F00202028004E002884FF610
:1039F000FD731A400280704721B1028842F0040230
:103A0000028004E002884FF6FB731A400280704780
:103A100021B1828842F08002828004E082884FF6E1
:103A20007F731A408280704702884FF6F7731A40FE
:103A3000028002880A430280704782884FF68F73A3
:103A40001A40828082880A438280704702894FF63A
:103A5000F8731A40028102890A4302817047028981
:103A60004FF67F731A40028102890A430281704730
:103A700081847047818570478186704701877047D0
:103A800081877047A0F84010704702884FF6FF43C7
:103A90001A40028002880A43028070470146888EDD
:103AA00070470146088F70470146888F704701466E
:103AB000B1F8400070470146888C70470146088D78
:103AC000704702460020138A0B400BB1012000E032
:103AD00000207047CA430282704730B5024600207A
:103AE00000230024158A05EA0103958905EA0104EB
:103AF00013B10CB1012000E0002030BDCA430282A6
:103B00007047000010B50446FB48844209D10121EA
:103B10008803FFF79FF800214FF48040FFF79AF8E1
:103B200032E0F648844209D101214804FFF79FF8AA
:103B300000214FF40030FFF79AF825E0F048844266
:103B400009D101218804FFF792F800214FF4802069
:103B5000FFF78DF818E0EB48844209D10121C80431
:103B6000FFF785F800214FF40020FFF780F80BE005
:103B7000E548844208D101210805FFF778F80021C3
:103B80004FF48010FFF773F810BD2DE9F04786B0B1
:103B900005460E460024A24600BFA1460027B08974
:103BA00000B100BF2F462C8A4CF6FF700440F0880D
:103BB00004432C82AC894EF6F3100440B08831895E
:103BC0000843718908430443AC81AC8A4FF6FF4037
:103BD0000440B0890443AC8201A8FEF7B4FFC64894
:103BE000874202D1DDF810A001E0DDF80CA0A88921
:103BF00000F4004040B10AEBCA0000EB0A10316843
:103C00004900B0FBF1F807E00AEBCA0000EB0A102C
:103C100031688900B0FBF1F86420B8FBF0F00401D2
:103C20002009642101FB1089A88900F4004040B1FB
:103C3000322000EBC900B0FBF1F000F007000443B4
:103C400008E0322000EB09106421B0FBF1F000F035
:103C50000F0004432C8106B0BDE8F0874FF41651E5
:103C6000016000218180C18001810C2141810021FE
:103C70008181704710B502460020108A4FF2FF0381
:103C800018400B884C8823438C882343CC882343DB
:103C90001843108210BD0021018041808180C180C5
:103CA000704721B1828942F40052828104E0828906
:103CB0004DF6FF731A4082817047F0B50346002429
:103CC00000260025002040F66A17B94200D100BF47
:103CD0001846C1F3421401F01F06012707FA06F542
:103CE000012C01D10C3004E0022C01D1103000E095
:103CF00014301AB107682F43076002E00768AF432A
:103D00000760F0BD1AB1838A0B43838202E0838A85
:103D10008B4383827047028A4FF6F0731A40028207
:103D2000028A0A430282704782894FF2FF731A4067
:103D3000828182890A438281704721B1828942F05F
:103D40000202828104E082894FF6FD731A4082816B
:103D50007047028A4FF6DF731A400282028A0A43D2
:103D60000282704721B1028A42F48042028204E05A
:103D7000028A4BF6FF731A4002827047C1F30802B1
:103D80008280704701468888C0F3080070478189A7
:103D900041F0010181817047028BD2B20283028B14
:103DA00042EA012202837047028B02F47F420283BF
:103DB000028B0A430283704721B1828A42F02002BB
:103DC000828204E0828A4FF6DF731A408282704753
:103DD00021B1828A42F01002828204E0828A4FF688
:103DE000EF731A408282704721B1828A42F0080242
:103DF000828204E0828A4FF6F7731A40828270470B
:103E000021B1828942F40042828103E08289C2F3B7
:103E10000E028281704721B1828A42F4006282825E
:103E200004E0828A4FF2FF731A4082827047828ACE
:103E30004FF6FB731A408282828A0A43828270475D
:103E400021B1828A42F00202828204E0828A4FF625
:103E5000FD731A408282704702460020B1F5007F50
:103E600000D100BF13880B400BB1012000E00020FF
:103E7000704701F40072B2F5007F00D100BFCA4361
:103E80000280704770B50246002400230025002000
:103E900040F66A16B14200D100BFC1F3421501F0ED
:103EA0001F03012606FA03F3012D02D19689334040
:103EB00006E0022D02D1168A334001E0968A334093
:103EC0000C12012606FA04F41688344013B10CB122
:103ED000012000E0002070BD10B50022002340F654
:103EE0006A14A14200D100BF0A1201249440A3B277
:103EF000DC43048010BD0000003801400044004055
:103F000000480040004C004000500040704770479F
:103F10007047754600F02CF8AE46050069465346DA
:103F200020F00700854618B020B5FEF7DDFABDE8A1
:103F300020404FF000064FF000074FF000084FF010
:103F4000000B21F00701AC46ACE8C009ACE8C009A1
:103F5000ACE8C009ACE8C0098D46704710B504460E
:103F6000AFF300802046BDE81040FCF728B9000000
:103F700000487047C002002001491820ABBEFEE790
:103F8000260002007047000090EA010F48BF81F050
:103F9000004100F1A082421A3CBF801A89184FEA02
:103FA000D0524FF07F4C1CEA410FA2EBD15318BF07
:103FB0009CEA026F00F03B804FF0004C4CEA00207E
:103FC0004CEA012121FA03FC10EB0C0C1ED202F189
:103FD000FF325FEA1C2040EBC25038BF70471CF034
:103FE0007F0F4FEA400C18BFBCF17F4F38BF7047BE
:103FF000C3F12003994008BF20F00100BCF17F4FBE
:1040000038BF7047A0F1C04000F01DBA4FEA3C0035
:10401000000A40EBC25028BF1CF0FF0F4FEA400CD3
:10402000E6D018BFBCF17F4F38BF7047EAE79CEA83
:10403000026F05D010EA5C0F08BF00F00040704727
:1040400010B500F0BAF900BF64FBBE3E401058BF87
:10405000C0F14040491058BFC1F140418142EFF3E7
:10406000008070474FF47F0C1CEAD0121EBF1CEA80
:10407000D11392EA0C0F93EA0C0F00F0858090EABE
:10408000010F48BF42F4807240F4000C41F400007C
:104090002CF07F4120F07F4000B58142A2EB03026B
:1040A0000FF2081CACEB504EC0F100009EF800E08F
:1040B0004FEA4E0E00FB0EFC38BF49004FEA2C1CA5
:1040C00002F5FA020CFB0EF34FEACE1E4FEA112C5A
:1040D0004FEAC1210EEB635E42EB22420EFB0CFC69
:1040E0004FEA1C5300FB03114FEA112C4FEA013138
:1040F0000EFB0CFC4FEADC4C00FB0C11C14228BF4C
:1041000009184CEB03335DF804EB10EB410143EB72
:10411000C250B2F57C0F38BF704729D512F0F00FAE
:104120001CBF00F1C04000F0004070470081828356
:104130008485868788898B8C8D8E8F9192939596B6
:1041400097999A9C9D9FA0A2A3A5A7A8AAACAEB040
:10415000B2B3B5B7B9BCBEC0C2C5C7C9CCCED1D445
:10416000D7D9DCDFE2E6E9ECF0F3F7FAFE00000075
:104170004FEA400C0CF1807CBCF17E4F28BF7047A9
:10418000B0F1C04000F05FB990EA010F0CEAD11322
:1041900048BF42F48072624538BF634507D213F4CA
:1041A0007F0F16D080EA010000F00040704710B584
:1041B00000F003F9097EFC3E00F005B880EA01003A
:1041C00000F00040704780EA010000F0004000F07D
:1041D0003AB912F47F0F04BF0248704780EA010029
:1041E00000F031B90000C07F41000B0ED3F19E02F8
:1041F00008D950F400034FEA032323FA02F048BF22
:104200004042704710B500F0D8F800BF49922480B2
:10421000002070476FF0004282EA200070470000E3
:1042200010F0004148BF4042B0FA80F310FA03F2A8
:10423000C3F19D030BD051EAC35101EB1220530689
:1042400038BF704700F1010008BF20F0010070473F
:1042500050EA010C00F113801CF5000F58BFBCF5AB
:10426000000F01D48842704707D710F5000F58BFE0
:1042700011F5000F15D488427047894270471CF52C
:10428000000F04D5BCF5000FF7D5814270474FF001
:10429000807C1CEB400F38BF1CEB410F01D28142E8
:1042A000704710B500F089F8922449004FF0005093
:1042B0004FF08051FFF7CABE4FF47F0C1CEAD012BA
:1042C0001EBF1CEAD11392EA0C0F93EA0C0F00F008
:1042D000478090EA010F48BF42F480724FF0004CD3
:1042E0004CEA00204CEA012102EB0302A0FB01137F
:1042F000A2F50002002918BF43F001035B0028BFAC
:104300004FEA330342EB22425FEA132C4CEBC250DC
:104310002EBFBCEB436FB2F57C0F70474FEA036CC6
:10432000BCF1004F08BF20F00100B2F57C0F38BF90
:1043300070470BD582F0FF0212F5803FC8BF70476F
:1043400000F1C040D8BF00F00040704700F5000CFD
:104350005FEA4C0C48BF7047B0F1C04000F073B842
:1043600090EA010F0CEAD11348BF42F48072624513
:1043700038BF634504D280EA010000F00040704776
:1043800010B500F01AF800BF8900013E00F007B830
:1043900000F009B85FEA410C5FEA1C6C08D080EAC3
:1043A000010000F050B85FEA400C5FEA1C6CF6D1E7
:1043B0004FF00040A0F5800070470EF1020E2EF085
:1043C000030E5EF8044B244204D44FEA4102B2F1DA
:1043D0007F4F11D84FEA4003B3F17F4F0CD80ED175
:1043E0004FEAD07CB2F17F4F0CEB4C0C0CF1020C7D
:1043F00008BF4CEBD17C04E04FF0080C01E04FEA21
:10440000D17C0CEB4C0324FA03F404F00704B4F160
:10441000040C06D20EEB840CBDE810404CF0010CED
:104420006047DFE80CF0070802024FF00040A0F5FB
:10443000800010BD0846420018BFD2F1807288BFCC
:1044400000F0004010BDFF2141EAD050C005704788
:1044500051EA000C00F113801CF5000F58BFBCF5A9
:10446000000F01D48142704707D711F5000F58BFE4
:1044700010F5000F15D481427047894270471CF532
:10448000000F04D5BCF5000FF7D5884270474FF0F8
:10449000807C1CEB410F38BF1CEB400F01D28842DF
:1044A000704780EA010081EA000180EA0100FFF71D
:1044B000F8BE80F0004090EA010F7FF56CAD81F00E
:1044C000004100F008B8000090EA010F48BF81F0F9
:1044D00000413FF560AD421A04D882F00042A0EBE3
:1044E000020011444FEAD0524FF07F4C1CEA410FBA
:1044F000A2EBD15318BF9CEA026F4AD04FF0004C98
:104500004CEA00204CEA012121FA03FCB0EB0C0C30
:104510000FD412F0FE0F36D05FEA4C001DD500120A
:1045200040EBC25038BF70471CF03F0F18BF7047B8
:104530000BE0A2F101025FEA1C2040EBC25038BF41
:1045400070471CF07F0F18BF7047C3F120039940DC
:1045500014BF401E20F00100704780084FEA12236C
:1045600008BF7047B0FA80FCA2EB0C02CCF1280C1B
:1045700060FA0CF093EA122F04BF00EBC2507047B0
:104580004FEAC3707047130A5FEADC1008BF704738
:10459000F6E79CEA026F04D010EA5C0F08BF002027
:1045A000704710B5FFF709FF40DFF63E81F000408D
:1045B0007047485846423000D845000800000020A7
:1045C000680000006C0100084046000868000020F8
:1045D000B808000088010008FFAA6988B5FFAA0191
:1045E0000800FFAA000000000000000000A24A042A
:1045F0000000000000000000010203040607080993
:1046000000000000000000000000000000000000AA
:104610000000000048584642310000000000000041
:104620000000000001000000000000000000010286
:104630000304010203040607080902040608000037
:0400000508000131BD
:00000001FF
